{
  "contractName": "FoundationFactory",
  "abi": [
    {
      "constant": true,
      "inputs": [],
      "name": "libraryAddress",
      "outputs": [
        {
          "name": "",
          "type": "address"
        }
      ],
      "payable": false,
      "stateMutability": "view",
      "type": "function"
    },
    {
      "inputs": [
        {
          "name": "_libraryAddress",
          "type": "address"
        }
      ],
      "payable": false,
      "stateMutability": "nonpayable",
      "type": "constructor"
    },
    {
      "anonymous": false,
      "inputs": [
        {
          "indexed": false,
          "name": "newFoundation",
          "type": "address"
        }
      ],
      "name": "FoundationCreated",
      "type": "event"
    }
  ],
  "bytecode": "0x608060405234801561001057600080fd5b50604051602080610117833981016040525160008054600160a060020a03909216600160a060020a031990921691909117905560c6806100516000396000f300608060405260043610603e5763ffffffff7c0100000000000000000000000000000000000000000000000000000000600035041663b816f51381146043575b600080fd5b348015604e57600080fd5b506055607e565b6040805173ffffffffffffffffffffffffffffffffffffffff9092168252519081900360200190f35b60005473ffffffffffffffffffffffffffffffffffffffff16815600a165627a7a72305820293d0023742f3b30343b7d5d62b0538cde98558d925f27b25b3a426fa1deda2d0029",
  "source": "pragma solidity >0.4.23 <0.9.0;\r\n//import \"./Foundation.sol\";\r\nimport \"@optionality.io/clone-factory/contracts/CloneFactory.sol\";\r\n\r\ncontract FoundationFactory is CloneFactory {\r\n\r\n  address public libraryAddress;\r\n\r\n  event FoundationCreated(address newFoundation);\r\n\r\n  function FoundationFactory(address _libraryAddress) public {\r\n    libraryAddress = _libraryAddress;\r\n  }\r\n}",
  "sourcePath": "C:\\Users\\aleba\\Desktop\\TextileChain\\smart_contracts\\contracts\\cloneFactory.sol",
  "compiler": {
    "name": "solc",
    "version": "0.4.26+commit.4563c3fc.Emscripten.clang"
  },
  "schemaVersion": "3.4.11",
  "updatedAt": "2023-03-01T10:13:16.244Z",
  "devdoc": {
    "methods": {}
  },
  "userdoc": {
    "methods": {}
  }
}