{
  "contractName": "ProductFactory",
  "abi": [
    {
      "inputs": [
        {
          "internalType": "address",
          "name": "_masterContract",
          "type": "address"
        }
      ],
      "payable": false,
      "stateMutability": "nonpayable",
      "type": "constructor"
    },
    {
      "anonymous": false,
      "inputs": [
        {
          "indexed": false,
          "internalType": "address",
          "name": "newAddress",
          "type": "address"
        }
      ],
      "name": "ProductCreated",
      "type": "event"
    },
    {
      "constant": false,
      "inputs": [
        {
          "internalType": "string",
          "name": "_name",
          "type": "string"
        },
        {
          "internalType": "string",
          "name": "_manufacturer_name",
          "type": "string"
        },
        {
          "internalType": "string",
          "name": "_prod_location",
          "type": "string"
        },
        {
          "internalType": "string",
          "name": "_prod_date",
          "type": "string"
        }
      ],
      "name": "createProduct",
      "outputs": [],
      "payable": false,
      "stateMutability": "nonpayable",
      "type": "function"
    }
  ],
  "bytecode": "0x608060405234801561001057600080fd5b506040516104043803806104048339818101604052602081101561003357600080fd5b5051600080546001600160a01b039092166001600160a01b031990921691909117905561039f806100656000396000f3fe608060405234801561001057600080fd5b506004361061002b5760003560e01c8063eb51e3cd14610030575b600080fd5b61018e6004803603608081101561004657600080fd5b810190602081018135600160201b81111561006057600080fd5b82018360208201111561007257600080fd5b803590602001918460018302840111600160201b8311171561009357600080fd5b919390929091602081019035600160201b8111156100b057600080fd5b8201836020820111156100c257600080fd5b803590602001918460018302840111600160201b831117156100e357600080fd5b919390929091602081019035600160201b81111561010057600080fd5b82018360208201111561011257600080fd5b803590602001918460018302840111600160201b8311171561013357600080fd5b919390929091602081019035600160201b81111561015057600080fd5b82018360208201111561016257600080fd5b803590602001918460018302840111600160201b8311171561018357600080fd5b509092509050610190565b005b600080546101a6906001600160a01b0316610318565b9050806001600160a01b031663602f0fa4338b8b8b8b8b8b8b8b6040518a63ffffffff1660e01b8152600401808a6001600160a01b03166001600160a01b031681526020018060200180602001806020018060200185810385528d8d82818152602001925080828437600083820152601f01601f191690910186810385528b815260200190508b8b80828437600083820152601f01601f191690910186810384528981526020019050898980828437600083820152601f01601f191690910186810383528781526020019050878780828437600081840152601f19601f8201169050808301925050509d5050505050505050505050505050600060405180830381600087803b1580156102b857600080fd5b505af11580156102cc573d6000803e3d6000fd5b5050604080516001600160a01b038516815290517f8c13150fc78b6c00b60262790df304fd55ef36a935a98feefd67391de7bfa0de9350908190036020019150a1505050505050505050565b6000808260601b9050604051733d602d80600a3d3981f3363d3d373d3d3d363d7360601b81528160148201526e5af43d82803e903d91602b57fd5bf360881b60288201526037816000f094935050505056fea265627a7a72315820a9a0eb18377bce85af8abe1ce3f2bad955e782f9430e2f411b7d9cef9d85cc7a64736f6c63430005100032",
  "source": "// SPDX-License-Identifier: MIT\r\npragma solidity >=0.4.22 <0.9.0;\r\n\r\nimport './Textile.sol';\r\n\r\ncontract CloneFactory {\r\n\r\n  function createClone(address target) internal returns (address result) {\r\n    bytes20 targetBytes = bytes20(target);\r\n    assembly {\r\n      let clone := mload(0x40)\r\n      mstore(clone, 0x3d602d80600a3d3981f3363d3d373d3d3d363d73000000000000000000000000)\r\n      mstore(add(clone, 0x14), targetBytes)\r\n      mstore(add(clone, 0x28), 0x5af43d82803e903d91602b57fd5bf30000000000000000000000000000000000)\r\n      result := create(0, clone, 0x37)\r\n    }\r\n  }\r\n\r\n  function isClone(address target, address query) internal view returns (bool result) {\r\n    bytes20 targetBytes = bytes20(target);\r\n    assembly {\r\n      let clone := mload(0x40)\r\n      mstore(clone, 0x363d3d373d3d3d363d7300000000000000000000000000000000000000000000)\r\n      mstore(add(clone, 0xa), targetBytes)\r\n      mstore(add(clone, 0x1e), 0x5af43d82803e903d91602b57fd5bf30000000000000000000000000000000000)\r\n\r\n      let other := add(clone, 0x40)\r\n      extcodecopy(query, other, 0, 0x2d)\r\n      result := and(\r\n        eq(mload(clone), mload(other)),\r\n        eq(mload(add(clone, 0xd)), mload(add(other, 0xd)))\r\n      )\r\n    }\r\n  }\r\n}\r\n\r\n\r\ncontract ProductFactory is CloneFactory {\r\n\r\n    address private masterContract;\r\n\r\n    event ProductCreated(address newAddress);\r\n\r\n    constructor(address _masterContract) public {\r\n        masterContract = _masterContract;\r\n    }\r\n\r\n    function createProduct(string calldata _name, string calldata _manufacturer_name, string calldata _prod_location, string calldata _prod_date) external{\r\n        Textile p = Textile(createClone(masterContract));\r\n        p.init(msg.sender, _name, _manufacturer_name, _prod_location, _prod_date);\r\n        emit ProductCreated(address(p));\r\n    }\r\n\r\n}",
  "sourcePath": "C:\\Users\\aleba\\Desktop\\TextileChain\\smart_contracts\\contracts\\cloneFactory.sol",
  "compiler": {
    "name": "solc",
    "version": "0.5.16+commit.9c3226ce.Emscripten.clang"
  },
  "schemaVersion": "3.4.11",
  "updatedAt": "2023-03-01T09:47:08.714Z",
  "devdoc": {
    "methods": {}
  },
  "userdoc": {
    "methods": {}
  }
}