{
  "contractName": "Textile",
  "abi": [
    {
      "inputs": [],
      "payable": false,
      "stateMutability": "nonpayable",
      "type": "constructor"
    },
    {
      "anonymous": false,
      "inputs": [
        {
          "indexed": false,
          "name": "previous_address",
          "type": "address"
        },
        {
          "indexed": false,
          "name": "current_address",
          "type": "address"
        }
      ],
      "name": "productExchanged",
      "type": "event"
    },
    {
      "constant": false,
      "inputs": [
        {
          "name": "_current_owner",
          "type": "address"
        },
        {
          "name": "_product_name",
          "type": "string"
        },
        {
          "name": "_factory_name",
          "type": "string"
        },
        {
          "name": "_factory_location",
          "type": "string"
        },
        {
          "name": "_factory_date",
          "type": "string"
        }
      ],
      "name": "init",
      "outputs": [],
      "payable": false,
      "stateMutability": "nonpayable",
      "type": "function"
    },
    {
      "constant": false,
      "inputs": [],
      "name": "productExchange",
      "outputs": [],
      "payable": false,
      "stateMutability": "nonpayable",
      "type": "function"
    },
    {
      "constant": true,
      "inputs": [],
      "name": "getIsFinalProduct",
      "outputs": [
        {
          "name": "final_product",
          "type": "bool"
        }
      ],
      "payable": false,
      "stateMutability": "view",
      "type": "function"
    },
    {
      "constant": true,
      "inputs": [],
      "name": "getName",
      "outputs": [
        {
          "name": "",
          "type": "string"
        }
      ],
      "payable": false,
      "stateMutability": "view",
      "type": "function"
    },
    {
      "constant": false,
      "inputs": [
        {
          "name": "component",
          "type": "address"
        }
      ],
      "name": "addComponent",
      "outputs": [],
      "payable": false,
      "stateMutability": "nonpayable",
      "type": "function"
    },
    {
      "constant": false,
      "inputs": [],
      "name": "consumeProduct",
      "outputs": [],
      "payable": false,
      "stateMutability": "nonpayable",
      "type": "function"
    },
    {
      "constant": false,
      "inputs": [],
      "name": "finalProduct",
      "outputs": [],
      "payable": false,
      "stateMutability": "nonpayable",
      "type": "function"
    },
    {
      "constant": true,
      "inputs": [],
      "name": "getProductDetails",
      "outputs": [
        {
          "name": "",
          "type": "string"
        },
        {
          "name": "",
          "type": "address"
        },
        {
          "name": "",
          "type": "string"
        },
        {
          "name": "",
          "type": "string"
        },
        {
          "name": "",
          "type": "string"
        }
      ],
      "payable": false,
      "stateMutability": "view",
      "type": "function"
    },
    {
      "constant": true,
      "inputs": [],
      "name": "getManufacturer",
      "outputs": [
        {
          "name": "",
          "type": "address"
        },
        {
          "name": "",
          "type": "string"
        }
      ],
      "payable": false,
      "stateMutability": "view",
      "type": "function"
    },
    {
      "constant": true,
      "inputs": [],
      "name": "getProductionLocation",
      "outputs": [
        {
          "name": "",
          "type": "string"
        }
      ],
      "payable": false,
      "stateMutability": "view",
      "type": "function"
    },
    {
      "constant": true,
      "inputs": [],
      "name": "getProductionDate",
      "outputs": [
        {
          "name": "",
          "type": "string"
        }
      ],
      "payable": false,
      "stateMutability": "view",
      "type": "function"
    },
    {
      "constant": true,
      "inputs": [],
      "name": "getComponents",
      "outputs": [
        {
          "name": "",
          "type": "address[]"
        }
      ],
      "payable": false,
      "stateMutability": "view",
      "type": "function"
    }
  ],
  "bytecode": "0x60806040526007805462ffffff1916905534801561001c57600080fd5b506007805461ff001916610100179055610f358061003b6000396000f3006080604052600436106100b95763ffffffff7c010000000000000000000000000000000000000000000000000000000060003504166303a2d7f181146100be57806304b0cdda146100d5578063174825141461017b57806317d7de7c1461020557806323bc839b1461021a5780634e353270146103f2578063602f0fa41461041357806397e175621461046457806399d50d5d14610479578063ba8da514146104de578063d9a494fc14610507578063fc64f4381461051c575b600080fd5b3480156100ca57600080fd5b506100d3610531565b005b3480156100e157600080fd5b506100ea6105ff565b6040518083600160a060020a0316600160a060020a0316815260200180602001828103825283818151815260200191508051906020019080838360005b8381101561013f578181015183820152602001610127565b50505050905090810190601f16801561016c5780820380516001836020036101000a031916815260200191505b50935050505060405180910390f35b34801561018757600080fd5b506101906106ac565b6040805160208082528351818301528351919283929083019185019080838360005b838110156101ca5781810151838201526020016101b2565b50505050905090810190601f1680156101f75780820380516001836020036101000a031916815260200191505b509250505060405180910390f35b34801561021157600080fd5b50610190610743565b34801561022657600080fd5b5061022f6107a4565b604051808060200186600160a060020a0316600160a060020a0316815260200180602001806020018060200185810385528a818151815260200191508051906020019080838360005b83811015610290578181015183820152602001610278565b50505050905090810190601f1680156102bd5780820380516001836020036101000a031916815260200191505b5085810384528851815288516020918201918a019080838360005b838110156102f05781810151838201526020016102d8565b50505050905090810190601f16801561031d5780820380516001836020036101000a031916815260200191505b50858103835287518152875160209182019189019080838360005b83811015610350578181015183820152602001610338565b50505050905090810190601f16801561037d5780820380516001836020036101000a031916815260200191505b50858103825286518152865160209182019188019080838360005b838110156103b0578181015183820152602001610398565b50505050905090810190601f1680156103dd5780820380516001836020036101000a031916815260200191505b50995050505050505050505060405180910390f35b3480156103fe57600080fd5b506100d3600160a060020a0360043516610a22565b34801561041f57600080fd5b506100d360048035600160a060020a03169060248035808201929081013591604435808201929081013591606435808201929081013591608435908101910135610b46565b34801561047057600080fd5b50610190610bbc565b34801561048557600080fd5b5061048e610c1d565b60408051602080825283518183015283519192839290830191858101910280838360005b838110156104ca5781810151838201526020016104b2565b505050509050019250505060405180910390f35b3480156104ea57600080fd5b506104f3610c7e565b604080519115158252519081900360200190f35b34801561051357600080fd5b506100d3610c8d565b34801561052857600080fd5b506100d3610dba565b600054600160a060020a03163314610595576040805160e560020a62461bcd0281526020600482015260266024820152600080516020610eca8339815191526044820152600080516020610eea833981519152606482015290519081900360840190fd5b60075460ff16156105f0576040805160e560020a62461bcd02815260206004820152601e60248201527f50726f647563742073686f756c20626520696e697469616c697a656420330000604482015290519081900360640190fd5b6007805460ff19166001179055565b6001805460038054604080516020601f600260001998861615610100029890980190941696909604928301869004860281018601909152818152600094606094600160a060020a03169392839183018282801561069d5780601f106106725761010080835404028352916020019161069d565b820191906000526020600020905b81548152906001019060200180831161068057829003601f168201915b50505050509050915091509091565b60058054604080516020601f60026000196101006001881615020190951694909404938401819004810282018101909252828152606093909290918301828280156107385780601f1061070d57610100808354040283529160200191610738565b820191906000526020600020905b81548152906001019060200180831161071b57829003601f168201915b505050505090505b90565b60068054604080516020601f60026000196101006001881615020190951694909404938401819004810282018101909252828152606093909290918301828280156107385780601f1061070d57610100808354040283529160200191610738565b6060600060608060606006600160009054906101000a9004600160a060020a0316600360046005848054600181600116156101000203166002900480601f0160208091040260200160405190810160405280929190818152602001828054600181600116156101000203166002900480156108605780601f1061083557610100808354040283529160200191610860565b820191906000526020600020905b81548152906001019060200180831161084357829003601f168201915b5050865460408051602060026001851615610100026000190190941693909304601f8101849004840282018401909252818152959a50889450925084019050828280156108ee5780601f106108c3576101008083540402835291602001916108ee565b820191906000526020600020905b8154815290600101906020018083116108d157829003601f168201915b5050855460408051602060026001851615610100026000190190941693909304601f81018490048402820184019092528181529598508794509250840190508282801561097c5780601f106109515761010080835404028352916020019161097c565b820191906000526020600020905b81548152906001019060200180831161095f57829003601f168201915b5050845460408051602060026001851615610100026000190190941693909304601f810184900484028201840190925281815295975086945092508401905082828015610a0a5780601f106109df57610100808354040283529160200191610a0a565b820191906000526020600020905b8154815290600101906020018083116109ed57829003601f168201915b50505050509050945094509450945094509091929394565b600054600160a060020a03163314610a86576040805160e560020a62461bcd0281526020600482015260266024820152600080516020610eca8339815191526044820152600080516020610eea833981519152606482015290519081900360840190fd5b60075462010000900460ff1615610ae7576040805160e560020a62461bcd02815260206004820152601f60248201527f50726f647563742073686f756c6420626520696e697469616c697a6564203200604482015290519081900360640190fd5b600280546001810182556000919091527f405787fa12a823e0f2b7631cc41b3ba8828b3321ca811111fa75cd3aa3bb5ace01805473ffffffffffffffffffffffffffffffffffffffff1916600160a060020a0392909216919091179055565b610b5260068989610e31565b506000805473ffffffffffffffffffffffffffffffffffffffff1916600160a060020a038b16179055610b8760038787610e31565b50610b9460048585610e31565b50610ba160058383610e31565b50506007805461ff0019166101001790555050505050505050565b60048054604080516020601f60026000196101006001881615020190951694909404938401819004810282018101909252828152606093909290918301828280156107385780601f1061070d57610100808354040283529160200191610738565b6060600280548060200260200160405190810160405280929190818152602001828054801561073857602002820191906000526020600020905b8154600160a060020a03168152600190910190602001808311610c57575050505050905090565b60075462010000900460ff1690565b60008054600160a060020a03163314610cf2576040805160e560020a62461bcd0281526020600482015260266024820152600080516020610eca8339815191526044820152600080516020610eea833981519152606482015290519081900360840190fd5b60075460ff1615610d4d576040805160e560020a62461bcd02815260206004820152601e60248201527f50726f647563742073686f756c20626520696e697469616c697a656420330000604482015290519081900360640190fd5b506000805473ffffffffffffffffffffffffffffffffffffffff19811633179182905560408051600160a060020a0392831680825293909216602083015280517fa40b8022826a17b1b2fcf40a0dbf967f3ca29814c7ba2f9bac7a9175233faef49281900390910190a150565b600054600160a060020a03163314610e1e576040805160e560020a62461bcd0281526020600482015260266024820152600080516020610eca8339815191526044820152600080516020610eea833981519152606482015290519081900360840190fd5b6007805462ff0000191662010000179055565b828054600181600116156101000203166002900490600052602060002090601f016020900481019282601f10610e725782800160ff19823516178555610e9f565b82800160010185558215610e9f579182015b82811115610e9f578235825591602001919060010190610e84565b50610eab929150610eaf565b5090565b61074091905b80821115610eab5760008155600101610eb55600796f7520617265206e6f7420746865206f776e6572206f66207468697320636f6e74726163740000000000000000000000000000000000000000000000000000a165627a7a72305820d13ba1b18cad8485ee06e0aeb35cffbebb80de78dd9db7dbd8905a184bd5fffc0029",
  "source": "pragma solidity >=0.4.23 <0.9.0;\r\n\r\ncontract Textile {\r\n\r\n\taddress private current_owner;\r\n\taddress private manufacturer;\r\n\taddress [] private textile_components;\r\n\tstring private factory_name;\r\n\tstring private factory_location;\r\n\tstring private factory_date;\r\n\tstring private product_name;\r\n\r\n\tbool private is_component = false;\r\n\tbool private is_init = false;\r\n\tbool private is_final_product = false;\r\n\r\n\r\n\tconstructor() public {\r\n\t\tis_init = true;\r\n\t}\r\n\r\n\tmodifier notInit(){\r\n\t\trequire(!is_init,'Product shoul be initialized 0');\r\n\t\t_;\r\n\t}\r\n\r\n\tmodifier onlyOwner(){\r\n        require(msg.sender == current_owner, \"you are not the owner of this contract\");\r\n        _;\r\n    }\r\n\r\n\tmodifier isFinalProduct(){\r\n\t\trequire(is_final_product,'Product shoul be initialized 1');\r\n\t\t_;\r\n\t}\r\n\r\n\tmodifier isNotFinalProduct(){\r\n\t\trequire(!is_final_product,'Product should be initialized 2');\r\n\t\t_;\r\n\t}\r\n\r\n\r\n\tmodifier isNotConsumed(){\r\n\t\trequire(!is_component,'Product shoul be initialized 3');\r\n\t\t_;\r\n\t}\r\n\r\n\tevent productExchanged(address previous_address, address current_address);\r\n\r\n    function init(address _current_owner, string _product_name, string _factory_name, string _factory_location, string _factory_date) external  {\r\n        product_name = _product_name;\r\n\t\tcurrent_owner = _current_owner;\r\n\t\tfactory_name = _factory_name;\r\n\t\tfactory_location = _factory_location;\r\n\t\tfactory_date = _factory_date;\r\n\r\n        is_init = true; \r\n    }\r\n\r\n\tfunction productExchange() external onlyOwner isNotConsumed {\r\n\r\n\t\taddress old_address = current_owner;\r\n\t\tcurrent_owner = msg.sender;\r\n\r\n\t\temit productExchanged(old_address, current_owner);\r\n\r\n\t}\r\n\r\n\tfunction getIsFinalProduct() external view returns(bool final_product){\r\n\t\treturn is_final_product;\r\n\t}\r\n\r\n\t\r\n    function getName() external view returns(string memory){\r\n        return product_name;\r\n    }\r\n\r\n\tfunction addComponent(address component) external onlyOwner isNotFinalProduct {\r\n\r\n\t\ttextile_components.push(component);\r\n\t}\r\n\r\n\tfunction consumeProduct() external onlyOwner isNotConsumed {\r\n\t\t\r\n\t\tis_component = true;\r\n\t}\r\n\r\n\tfunction finalProduct() external onlyOwner{\r\n\r\n\t\tis_final_product = true;\r\n\t}\r\n\r\n\tfunction getProductDetails() external view returns(string memory, address, string memory, string memory, string memory){\r\n        return (product_name,manufacturer,factory_name,factory_location,factory_date);\r\n    }\r\n\r\n\t    function getManufacturer() external view returns(address, string memory){\r\n        return (manufacturer, factory_name);\r\n    }\r\n\r\n    function getProductionLocation() external view returns(string memory){\r\n        return factory_location;\r\n    }\r\n\r\n    function getProductionDate() external view returns(string memory){\r\n        return factory_date;\r\n    }\r\n\r\n    function getComponents() external view returns(address[] memory){\r\n        return textile_components;\r\n    }\r\n} ",
  "sourcePath": "C:\\Users\\ciuff\\Desktop\\TextileChain\\smart_contracts\\contracts\\Textile.sol",
  "compiler": {
    "name": "solc",
    "version": "0.4.26+commit.4563c3fc.Emscripten.clang"
  },
  "schemaVersion": "3.4.11",
  "updatedAt": "2023-03-14T14:10:16.146Z",
  "networkType": "ethereum",
  "devdoc": {
    "methods": {}
  },
  "userdoc": {
    "methods": {}
  }
}