{
  "contractName": "Textile",
  "abi": [
    {
      "inputs": [],
      "payable": false,
      "stateMutability": "nonpayable",
      "type": "constructor"
    },
    {
      "constant": false,
      "inputs": [
        {
          "name": "_current_owner",
          "type": "address"
        },
        {
          "name": "_product_name",
          "type": "string"
        },
        {
          "name": "_factory_name",
          "type": "string"
        },
        {
          "name": "_factory_location",
          "type": "string"
        },
        {
          "name": "_factory_date",
          "type": "string"
        },
        {
          "name": "_verification_id",
          "type": "string"
        }
      ],
      "name": "init",
      "outputs": [],
      "payable": false,
      "stateMutability": "nonpayable",
      "type": "function"
    },
    {
      "constant": true,
      "inputs": [],
      "name": "getIsFinalProduct",
      "outputs": [
        {
          "name": "final_product",
          "type": "bool"
        }
      ],
      "payable": false,
      "stateMutability": "view",
      "type": "function"
    },
    {
      "constant": true,
      "inputs": [],
      "name": "getName",
      "outputs": [
        {
          "name": "",
          "type": "string"
        }
      ],
      "payable": false,
      "stateMutability": "view",
      "type": "function"
    },
    {
      "constant": false,
      "inputs": [
        {
          "name": "component",
          "type": "address"
        }
      ],
      "name": "addComponent",
      "outputs": [],
      "payable": false,
      "stateMutability": "nonpayable",
      "type": "function"
    },
    {
      "constant": false,
      "inputs": [],
      "name": "finalProduct",
      "outputs": [],
      "payable": false,
      "stateMutability": "nonpayable",
      "type": "function"
    },
    {
      "constant": true,
      "inputs": [],
      "name": "getProductDetails",
      "outputs": [
        {
          "name": "",
          "type": "string"
        },
        {
          "name": "",
          "type": "address"
        },
        {
          "name": "",
          "type": "string"
        },
        {
          "name": "",
          "type": "string"
        },
        {
          "name": "",
          "type": "string"
        }
      ],
      "payable": false,
      "stateMutability": "view",
      "type": "function"
    },
    {
      "constant": true,
      "inputs": [],
      "name": "getManufacturer",
      "outputs": [
        {
          "name": "",
          "type": "address"
        },
        {
          "name": "",
          "type": "string"
        }
      ],
      "payable": false,
      "stateMutability": "view",
      "type": "function"
    },
    {
      "constant": true,
      "inputs": [],
      "name": "getProductionLocation",
      "outputs": [
        {
          "name": "",
          "type": "string"
        }
      ],
      "payable": false,
      "stateMutability": "view",
      "type": "function"
    },
    {
      "constant": true,
      "inputs": [],
      "name": "getProductionDate",
      "outputs": [
        {
          "name": "",
          "type": "string"
        }
      ],
      "payable": false,
      "stateMutability": "view",
      "type": "function"
    },
    {
      "constant": true,
      "inputs": [],
      "name": "getComponents",
      "outputs": [
        {
          "name": "",
          "type": "address[]"
        }
      ],
      "payable": false,
      "stateMutability": "view",
      "type": "function"
    }
  ],
  "bytecode": "0x60806040526008805462ffffff1916905534801561001c57600080fd5b506008805461ff001916610100179055610d628061003b6000396000f3006080604052600436106100a35763ffffffff7c010000000000000000000000000000000000000000000000000000000060003504166304b0cdda81146100a8578063174825141461014e57806317d7de7c146101d857806323bc839b146101ed5780634e353270146103c55780637375871d146103e857806397e175621461044557806399d50d5d1461045a578063ba8da514146104bf578063fc64f438146104e8575b600080fd5b3480156100b457600080fd5b506100bd6104fd565b6040518083600160a060020a0316600160a060020a0316815260200180602001828103825283818151815260200191508051906020019080838360005b838110156101125781810151838201526020016100fa565b50505050905090810190601f16801561013f5780820380516001836020036101000a031916815260200191505b50935050505060405180910390f35b34801561015a57600080fd5b506101636105aa565b6040805160208082528351818301528351919283929083019185019080838360005b8381101561019d578181015183820152602001610185565b50505050905090810190601f1680156101ca5780820380516001836020036101000a031916815260200191505b509250505060405180910390f35b3480156101e457600080fd5b50610163610641565b3480156101f957600080fd5b506102026106a2565b604051808060200186600160a060020a0316600160a060020a0316815260200180602001806020018060200185810385528a818151815260200191508051906020019080838360005b8381101561026357818101518382015260200161024b565b50505050905090810190601f1680156102905780820380516001836020036101000a031916815260200191505b5085810384528851815288516020918201918a019080838360005b838110156102c35781810151838201526020016102ab565b50505050905090810190601f1680156102f05780820380516001836020036101000a031916815260200191505b50858103835287518152875160209182019189019080838360005b8381101561032357818101518382015260200161030b565b50505050905090810190601f1680156103505780820380516001836020036101000a031916815260200191505b50858103825286518152865160209182019188019080838360005b8381101561038357818101518382015260200161036b565b50505050905090810190601f1680156103b05780820380516001836020036101000a031916815260200191505b50995050505050505050505060405180910390f35b3480156103d157600080fd5b506103e6600160a060020a0360043516610920565b005b3480156103f457600080fd5b506103e660048035600160a060020a0316906024803580820192908101359160443580820192908101359160643580820192908101359160843580820192908101359160a435908101910135610a96565b34801561045157600080fd5b50610163610b1b565b34801561046657600080fd5b5061046f610b7c565b60408051602080825283518183015283519192839290830191858101910280838360005b838110156104ab578181015183820152602001610493565b505050509050019250505060405180910390f35b3480156104cb57600080fd5b506104d4610bdd565b604080519115158252519081900360200190f35b3480156104f457600080fd5b506103e6610bec565b6001805460038054604080516020601f600260001998861615610100029890980190941696909604928301869004860281018601909152818152600094606094600160a060020a03169392839183018282801561059b5780601f106105705761010080835404028352916020019161059b565b820191906000526020600020905b81548152906001019060200180831161057e57829003601f168201915b50505050509050915091509091565b60058054604080516020601f60026000196101006001881615020190951694909404938401819004810282018101909252828152606093909290918301828280156106365780601f1061060b57610100808354040283529160200191610636565b820191906000526020600020905b81548152906001019060200180831161061957829003601f168201915b505050505090505b90565b60068054604080516020601f60026000196101006001881615020190951694909404938401819004810282018101909252828152606093909290918301828280156106365780601f1061060b57610100808354040283529160200191610636565b6060600060608060606006600160009054906101000a9004600160a060020a0316600360046005848054600181600116156101000203166002900480601f01602080910402602001604051908101604052809291908181526020018280546001816001161561010002031660029004801561075e5780601f106107335761010080835404028352916020019161075e565b820191906000526020600020905b81548152906001019060200180831161074157829003601f168201915b5050865460408051602060026001851615610100026000190190941693909304601f8101849004840282018401909252818152959a50889450925084019050828280156107ec5780601f106107c1576101008083540402835291602001916107ec565b820191906000526020600020905b8154815290600101906020018083116107cf57829003601f168201915b5050855460408051602060026001851615610100026000190190941693909304601f81018490048402820184019092528181529598508794509250840190508282801561087a5780601f1061084f5761010080835404028352916020019161087a565b820191906000526020600020905b81548152906001019060200180831161085d57829003601f168201915b5050845460408051602060026001851615610100026000190190941693909304601f8101849004840282018401909252818152959750869450925084019050828280156109085780601f106108dd57610100808354040283529160200191610908565b820191906000526020600020905b8154815290600101906020018083116108eb57829003601f168201915b50505050509050945094509450945094509091929394565b600054600160a060020a031633146109bf57604080517f08c379a000000000000000000000000000000000000000000000000000000000815260206004820152602660248201527f796f7520617265206e6f7420746865206f776e6572206f66207468697320636f60448201527f6e74726163740000000000000000000000000000000000000000000000000000606482015290519081900360840190fd5b60085462010000900460ff1615610a3757604080517f08c379a000000000000000000000000000000000000000000000000000000000815260206004820152601f60248201527f50726f647563742073686f756c64206e6f742062652061206761726d656e7400604482015290519081900360640190fd5b600280546001810182556000919091527f405787fa12a823e0f2b7631cc41b3ba8828b3321ca811111fa75cd3aa3bb5ace01805473ffffffffffffffffffffffffffffffffffffffff1916600160a060020a0392909216919091179055565b610aa260068b8b610c9e565b506000805473ffffffffffffffffffffffffffffffffffffffff1916600160a060020a038d16179055610ad760038989610c9e565b50610ae460048787610c9e565b50610af160058585610c9e565b50610afe60078383610c9e565b50506008805461ff00191661010017905550505050505050505050565b60048054604080516020601f60026000196101006001881615020190951694909404938401819004810282018101909252828152606093909290918301828280156106365780601f1061060b57610100808354040283529160200191610636565b6060600280548060200260200160405190810160405280929190818152602001828054801561063657602002820191906000526020600020905b8154600160a060020a03168152600190910190602001808311610bb6575050505050905090565b60085462010000900460ff1690565b600054600160a060020a03163314610c8b57604080517f08c379a000000000000000000000000000000000000000000000000000000000815260206004820152602660248201527f796f7520617265206e6f7420746865206f776e6572206f66207468697320636f60448201527f6e74726163740000000000000000000000000000000000000000000000000000606482015290519081900360840190fd5b6008805462ff0000191662010000179055565b828054600181600116156101000203166002900490600052602060002090601f016020900481019282601f10610cdf5782800160ff19823516178555610d0c565b82800160010185558215610d0c579182015b82811115610d0c578235825591602001919060010190610cf1565b50610d18929150610d1c565b5090565b61063e91905b80821115610d185760008155600101610d225600a165627a7a72305820d31e12659d3362ed03721b23f2e7063ec9d651edb227411e246754c5160d634b0029",
  "source": "pragma solidity >=0.4.23 <0.9.0;\n\ncontract Textile {\n\n\taddress private current_owner;\n\taddress private manufacturer;\n\taddress [] private textile_components;\n\tstring private factory_name;\n\tstring private factory_location;\n\tstring private factory_date;\n\tstring private product_name;\n\tstring private verification_id;\n\n\tbool private is_component = false;\n\tbool private is_init = false;\n\tbool private is_final_product = false;\n\n\n\tconstructor() public {\n\t\tis_init = true;\n\t}\n\n\tmodifier onlyOwner(){\n        require(msg.sender == current_owner, \"you are not the owner of this contract\");\n        _;\n    }\n\n\tmodifier isFinalProduct(){\n\t\trequire(is_final_product,'Product shoul be a garment');\n\t\t_;\n\t}\n\n\tmodifier isNotFinalProduct(){\n\t\trequire(!is_final_product,'Product should not be a garment');\n\t\t_;\n\t}\n\n\n    function init(address _current_owner, string _product_name, string _factory_name, string _factory_location, string _factory_date, string _verification_id) external  {\n        product_name = _product_name;\n\t\tcurrent_owner = _current_owner;\n\t\tfactory_name = _factory_name;\n\t\tfactory_location = _factory_location;\n\t\tfactory_date = _factory_date;\n\t\tverification_id = _verification_id;\n\n        is_init = true; \n    }\n\n\tfunction getIsFinalProduct() external view returns(bool final_product){\n\t\treturn is_final_product;\n\t}\n\n\t\n    function getName() external view returns(string){\n        return product_name;\n    }\n\n\tfunction addComponent(address component) external onlyOwner isNotFinalProduct {\n\n\t\ttextile_components.push(component);\n\t}\n\n\n\n\tfunction finalProduct() external onlyOwner{\n\n\t\tis_final_product = true;\n\t}\n\n\tfunction getProductDetails() external view returns(string memory, address, string memory, string memory, string memory){\n        return (product_name,manufacturer,factory_name,factory_location,factory_date);\n    }\n\n\tfunction getManufacturer() external view returns(address, string memory){\n        return (manufacturer, factory_name);\n    }\n\n    function getProductionLocation() external view returns(string memory){\n        return factory_location;\n    }\n\n    function getProductionDate() external view returns(string memory){\n        return factory_date;\n    }\n\n    function getComponents() external view returns(address[] memory){\n        return textile_components;\n    }\n} ",
  "sourcePath": "C:\\Users\\aleba\\Desktop\\TextileChain\\smart_contracts\\contracts\\Textile.sol",
  "compiler": {
    "name": "solc",
    "version": "0.4.26+commit.4563c3fc.Emscripten.clang"
  },
  "schemaVersion": "3.4.11",
  "updatedAt": "2023-03-25T15:44:53.781Z",
  "devdoc": {
    "methods": {}
  },
  "userdoc": {
    "methods": {}
  }
}