{
  "contractName": "Textile",
  "abi": [
    {
      "inputs": [],
      "payable": false,
      "stateMutability": "nonpayable",
      "type": "constructor"
    },
    {
      "anonymous": false,
      "inputs": [
        {
          "indexed": false,
          "name": "previous_address",
          "type": "address"
        },
        {
          "indexed": false,
          "name": "current_address",
          "type": "address"
        }
      ],
      "name": "productExchanged",
      "type": "event"
    },
    {
      "constant": false,
      "inputs": [
        {
          "name": "_current_owner",
          "type": "address"
        },
        {
          "name": "_product_name",
          "type": "string"
        },
        {
          "name": "_factory_name",
          "type": "string"
        },
        {
          "name": "_factory_location",
          "type": "string"
        },
        {
          "name": "_factory_date",
          "type": "string"
        },
        {
          "name": "_verification_id",
          "type": "string"
        }
      ],
      "name": "init",
      "outputs": [],
      "payable": false,
      "stateMutability": "nonpayable",
      "type": "function"
    },
    {
      "constant": false,
      "inputs": [],
      "name": "productExchange",
      "outputs": [],
      "payable": false,
      "stateMutability": "nonpayable",
      "type": "function"
    },
    {
      "constant": true,
      "inputs": [],
      "name": "getIsFinalProduct",
      "outputs": [
        {
          "name": "final_product",
          "type": "bool"
        }
      ],
      "payable": false,
      "stateMutability": "view",
      "type": "function"
    },
    {
      "constant": true,
      "inputs": [],
      "name": "getName",
      "outputs": [
        {
          "name": "",
          "type": "string"
        }
      ],
      "payable": false,
      "stateMutability": "view",
      "type": "function"
    },
    {
      "constant": false,
      "inputs": [
        {
          "name": "component",
          "type": "address"
        }
      ],
      "name": "addComponent",
      "outputs": [],
      "payable": false,
      "stateMutability": "nonpayable",
      "type": "function"
    },
    {
      "constant": false,
      "inputs": [],
      "name": "consumeProduct",
      "outputs": [],
      "payable": false,
      "stateMutability": "nonpayable",
      "type": "function"
    },
    {
      "constant": false,
      "inputs": [],
      "name": "finalProduct",
      "outputs": [],
      "payable": false,
      "stateMutability": "nonpayable",
      "type": "function"
    },
    {
      "constant": true,
      "inputs": [],
      "name": "getProductDetails",
      "outputs": [
        {
          "name": "",
          "type": "string"
        },
        {
          "name": "",
          "type": "address"
        },
        {
          "name": "",
          "type": "string"
        },
        {
          "name": "",
          "type": "string"
        },
        {
          "name": "",
          "type": "string"
        }
      ],
      "payable": false,
      "stateMutability": "view",
      "type": "function"
    },
    {
      "constant": true,
      "inputs": [],
      "name": "getManufacturer",
      "outputs": [
        {
          "name": "",
          "type": "address"
        },
        {
          "name": "",
          "type": "string"
        }
      ],
      "payable": false,
      "stateMutability": "view",
      "type": "function"
    },
    {
      "constant": true,
      "inputs": [],
      "name": "getProductionLocation",
      "outputs": [
        {
          "name": "",
          "type": "string"
        }
      ],
      "payable": false,
      "stateMutability": "view",
      "type": "function"
    },
    {
      "constant": true,
      "inputs": [],
      "name": "getProductionDate",
      "outputs": [
        {
          "name": "",
          "type": "string"
        }
      ],
      "payable": false,
      "stateMutability": "view",
      "type": "function"
    },
    {
      "constant": true,
      "inputs": [],
      "name": "getComponents",
      "outputs": [
        {
          "name": "",
          "type": "address[]"
        }
      ],
      "payable": false,
      "stateMutability": "view",
      "type": "function"
    }
  ],
  "bytecode": "0x60806040526008805462ffffff1916905534801561001c57600080fd5b506008805461ff001916610100179055610f508061003b6000396000f3006080604052600436106100b95763ffffffff7c010000000000000000000000000000000000000000000000000000000060003504166303a2d7f181146100be57806304b0cdda146100d5578063174825141461017b57806317d7de7c1461020557806323bc839b1461021a5780634e353270146103f25780637375871d1461041357806397e175621461047057806399d50d5d14610485578063ba8da514146104ea578063d9a494fc14610513578063fc64f43814610528575b600080fd5b3480156100ca57600080fd5b506100d361053d565b005b3480156100e157600080fd5b506100ea61060b565b6040518083600160a060020a0316600160a060020a0316815260200180602001828103825283818151815260200191508051906020019080838360005b8381101561013f578181015183820152602001610127565b50505050905090810190601f16801561016c5780820380516001836020036101000a031916815260200191505b50935050505060405180910390f35b34801561018757600080fd5b506101906106b8565b6040805160208082528351818301528351919283929083019185019080838360005b838110156101ca5781810151838201526020016101b2565b50505050905090810190601f1680156101f75780820380516001836020036101000a031916815260200191505b509250505060405180910390f35b34801561021157600080fd5b5061019061074f565b34801561022657600080fd5b5061022f6107b0565b604051808060200186600160a060020a0316600160a060020a0316815260200180602001806020018060200185810385528a818151815260200191508051906020019080838360005b83811015610290578181015183820152602001610278565b50505050905090810190601f1680156102bd5780820380516001836020036101000a031916815260200191505b5085810384528851815288516020918201918a019080838360005b838110156102f05781810151838201526020016102d8565b50505050905090810190601f16801561031d5780820380516001836020036101000a031916815260200191505b50858103835287518152875160209182019189019080838360005b83811015610350578181015183820152602001610338565b50505050905090810190601f16801561037d5780820380516001836020036101000a031916815260200191505b50858103825286518152865160209182019188019080838360005b838110156103b0578181015183820152602001610398565b50505050905090810190601f1680156103dd5780820380516001836020036101000a031916815260200191505b50995050505050505050505060405180910390f35b3480156103fe57600080fd5b506100d3600160a060020a0360043516610a2e565b34801561041f57600080fd5b506100d360048035600160a060020a0316906024803580820192908101359160443580820192908101359160643580820192908101359160843580820192908101359160a435908101910135610b52565b34801561047c57600080fd5b50610190610bd7565b34801561049157600080fd5b5061049a610c38565b60408051602080825283518183015283519192839290830191858101910280838360005b838110156104d65781810151838201526020016104be565b505050509050019250505060405180910390f35b3480156104f657600080fd5b506104ff610c99565b604080519115158252519081900360200190f35b34801561051f57600080fd5b506100d3610ca8565b34801561053457600080fd5b506100d3610dd5565b600054600160a060020a031633146105a1576040805160e560020a62461bcd0281526020600482015260266024820152600080516020610ee58339815191526044820152600080516020610f05833981519152606482015290519081900360840190fd5b60085460ff16156105fc576040805160e560020a62461bcd02815260206004820152601e60248201527f50726f647563742073686f756c20626520696e697469616c697a656420330000604482015290519081900360640190fd5b6008805460ff19166001179055565b6001805460038054604080516020601f600260001998861615610100029890980190941696909604928301869004860281018601909152818152600094606094600160a060020a0316939283918301828280156106a95780601f1061067e576101008083540402835291602001916106a9565b820191906000526020600020905b81548152906001019060200180831161068c57829003601f168201915b50505050509050915091509091565b60058054604080516020601f60026000196101006001881615020190951694909404938401819004810282018101909252828152606093909290918301828280156107445780601f1061071957610100808354040283529160200191610744565b820191906000526020600020905b81548152906001019060200180831161072757829003601f168201915b505050505090505b90565b60068054604080516020601f60026000196101006001881615020190951694909404938401819004810282018101909252828152606093909290918301828280156107445780601f1061071957610100808354040283529160200191610744565b6060600060608060606006600160009054906101000a9004600160a060020a0316600360046005848054600181600116156101000203166002900480601f01602080910402602001604051908101604052809291908181526020018280546001816001161561010002031660029004801561086c5780601f106108415761010080835404028352916020019161086c565b820191906000526020600020905b81548152906001019060200180831161084f57829003601f168201915b5050865460408051602060026001851615610100026000190190941693909304601f8101849004840282018401909252818152959a50889450925084019050828280156108fa5780601f106108cf576101008083540402835291602001916108fa565b820191906000526020600020905b8154815290600101906020018083116108dd57829003601f168201915b5050855460408051602060026001851615610100026000190190941693909304601f8101849004840282018401909252818152959850879450925084019050828280156109885780601f1061095d57610100808354040283529160200191610988565b820191906000526020600020905b81548152906001019060200180831161096b57829003601f168201915b5050845460408051602060026001851615610100026000190190941693909304601f810184900484028201840190925281815295975086945092508401905082828015610a165780601f106109eb57610100808354040283529160200191610a16565b820191906000526020600020905b8154815290600101906020018083116109f957829003601f168201915b50505050509050945094509450945094509091929394565b600054600160a060020a03163314610a92576040805160e560020a62461bcd0281526020600482015260266024820152600080516020610ee58339815191526044820152600080516020610f05833981519152606482015290519081900360840190fd5b60085462010000900460ff1615610af3576040805160e560020a62461bcd02815260206004820152601f60248201527f50726f647563742073686f756c6420626520696e697469616c697a6564203200604482015290519081900360640190fd5b600280546001810182556000919091527f405787fa12a823e0f2b7631cc41b3ba8828b3321ca811111fa75cd3aa3bb5ace01805473ffffffffffffffffffffffffffffffffffffffff1916600160a060020a0392909216919091179055565b610b5e60068b8b610e4c565b506000805473ffffffffffffffffffffffffffffffffffffffff1916600160a060020a038d16179055610b9360038989610e4c565b50610ba060048787610e4c565b50610bad60058585610e4c565b50610bba60078383610e4c565b50506008805461ff00191661010017905550505050505050505050565b60048054604080516020601f60026000196101006001881615020190951694909404938401819004810282018101909252828152606093909290918301828280156107445780601f1061071957610100808354040283529160200191610744565b6060600280548060200260200160405190810160405280929190818152602001828054801561074457602002820191906000526020600020905b8154600160a060020a03168152600190910190602001808311610c72575050505050905090565b60085462010000900460ff1690565b60008054600160a060020a03163314610d0d576040805160e560020a62461bcd0281526020600482015260266024820152600080516020610ee58339815191526044820152600080516020610f05833981519152606482015290519081900360840190fd5b60085460ff1615610d68576040805160e560020a62461bcd02815260206004820152601e60248201527f50726f647563742073686f756c20626520696e697469616c697a656420330000604482015290519081900360640190fd5b506000805473ffffffffffffffffffffffffffffffffffffffff19811633179182905560408051600160a060020a0392831680825293909216602083015280517fa40b8022826a17b1b2fcf40a0dbf967f3ca29814c7ba2f9bac7a9175233faef49281900390910190a150565b600054600160a060020a03163314610e39576040805160e560020a62461bcd0281526020600482015260266024820152600080516020610ee58339815191526044820152600080516020610f05833981519152606482015290519081900360840190fd5b6008805462ff0000191662010000179055565b828054600181600116156101000203166002900490600052602060002090601f016020900481019282601f10610e8d5782800160ff19823516178555610eba565b82800160010185558215610eba579182015b82811115610eba578235825591602001919060010190610e9f565b50610ec6929150610eca565b5090565b61074c91905b80821115610ec65760008155600101610ed05600796f7520617265206e6f7420746865206f776e6572206f66207468697320636f6e74726163740000000000000000000000000000000000000000000000000000a165627a7a72305820fe606c2e2854df634d59a0a5f9082ebd1ac3ac93aac48eab69ad96c36d3852470029",
  "source": "pragma solidity >=0.4.23 <0.9.0;\n\ncontract Textile {\n\n\taddress private current_owner;\n\taddress private manufacturer;\n\taddress [] private textile_components;\n\tstring private factory_name;\n\tstring private factory_location;\n\tstring private factory_date;\n\tstring private product_name;\n\tstring private verification_id;\n\n\tbool private is_component = false;\n\tbool private is_init = false;\n\tbool private is_final_product = false;\n\n\n\tconstructor() public {\n\t\tis_init = true;\n\t}\n\n\tmodifier notInit(){\n\t\trequire(!is_init,'Product shoul be initialized 0');\n\t\t_;\n\t}\n\n\tmodifier onlyOwner(){\n        require(msg.sender == current_owner, \"you are not the owner of this contract\");\n        _;\n    }\n\n\tmodifier isFinalProduct(){\n\t\trequire(is_final_product,'Product shoul be initialized 1');\n\t\t_;\n\t}\n\n\tmodifier isNotFinalProduct(){\n\t\trequire(!is_final_product,'Product should be initialized 2');\n\t\t_;\n\t}\n\n\n\tmodifier isNotConsumed(){\n\t\trequire(!is_component,'Product shoul be initialized 3');\n\t\t_;\n\t}\n\n\tevent productExchanged(address previous_address, address current_address);\n\n    function init(address _current_owner, string _product_name, string _factory_name, string _factory_location, string _factory_date, string _verification_id) external  {\n        product_name = _product_name;\n\t\tcurrent_owner = _current_owner;\n\t\tfactory_name = _factory_name;\n\t\tfactory_location = _factory_location;\n\t\tfactory_date = _factory_date;\n\t\tverification_id = _verification_id;\n\n        is_init = true; \n    }\n\n\tfunction productExchange() external onlyOwner isNotConsumed {\n\n\t\taddress old_address = current_owner;\n\t\tcurrent_owner = msg.sender;\n\n\t\temit productExchanged(old_address, current_owner);\n\n\t}\n\n\tfunction getIsFinalProduct() external view returns(bool final_product){\n\t\treturn is_final_product;\n\t}\n\n\t\n    function getName() external view returns(string memory){\n        return product_name;\n    }\n\n\tfunction addComponent(address component) external onlyOwner isNotFinalProduct {\n\n\t\ttextile_components.push(component);\n\t}\n\n\tfunction consumeProduct() external onlyOwner isNotConsumed {\n\t\t\n\t\tis_component = true;\n\t}\n\n\tfunction finalProduct() external onlyOwner{\n\n\t\tis_final_product = true;\n\t}\n\n\tfunction getProductDetails() external view returns(string memory, address, string memory, string memory, string memory){\n        return (product_name,manufacturer,factory_name,factory_location,factory_date);\n    }\n\n\t    function getManufacturer() external view returns(address, string memory){\n        return (manufacturer, factory_name);\n    }\n\n    function getProductionLocation() external view returns(string memory){\n        return factory_location;\n    }\n\n    function getProductionDate() external view returns(string memory){\n        return factory_date;\n    }\n\n    function getComponents() external view returns(address[] memory){\n        return textile_components;\n    }\n} ",
  "sourcePath": "C:\\Users\\aleba\\Desktop\\TextileChain\\smart_contracts\\contracts\\Textile.sol",
  "compiler": {
    "name": "solc",
    "version": "0.4.26+commit.4563c3fc.Emscripten.clang"
  },
  "schemaVersion": "3.4.11",
  "updatedAt": "2023-03-16T15:12:03.426Z",
  "networkType": "ethereum",
  "devdoc": {
    "methods": {}
  },
  "userdoc": {
    "methods": {}
  }
}