{
  "contractName": "Textile",
  "abi": [
    {
      "inputs": [],
      "payable": false,
      "stateMutability": "nonpayable",
      "type": "constructor"
    },
    {
      "anonymous": false,
      "inputs": [
        {
          "indexed": false,
          "name": "previous_address",
          "type": "address"
        },
        {
          "indexed": false,
          "name": "current_address",
          "type": "address"
        }
      ],
      "name": "productExchanged",
      "type": "event"
    },
    {
      "constant": false,
      "inputs": [
        {
          "name": "_current_owner",
          "type": "address"
        },
        {
          "name": "_product_name",
          "type": "string"
        },
        {
          "name": "_factory_name",
          "type": "string"
        },
        {
          "name": "_factory_location",
          "type": "string"
        },
        {
          "name": "_factory_date",
          "type": "string"
        }
      ],
      "name": "init",
      "outputs": [],
      "payable": false,
      "stateMutability": "nonpayable",
      "type": "function"
    },
    {
      "constant": false,
      "inputs": [],
      "name": "productExchange",
      "outputs": [],
      "payable": false,
      "stateMutability": "nonpayable",
      "type": "function"
    },
    {
      "constant": true,
      "inputs": [],
      "name": "getName",
      "outputs": [
        {
          "name": "",
          "type": "string"
        }
      ],
      "payable": false,
      "stateMutability": "view",
      "type": "function"
    },
    {
      "constant": false,
      "inputs": [
        {
          "name": "component",
          "type": "address"
        }
      ],
      "name": "addComponent",
      "outputs": [],
      "payable": false,
      "stateMutability": "nonpayable",
      "type": "function"
    },
    {
      "constant": false,
      "inputs": [],
      "name": "consumeProduct",
      "outputs": [],
      "payable": false,
      "stateMutability": "nonpayable",
      "type": "function"
    },
    {
      "constant": false,
      "inputs": [],
      "name": "finalProduct",
      "outputs": [],
      "payable": false,
      "stateMutability": "nonpayable",
      "type": "function"
    },
    {
      "constant": true,
      "inputs": [],
      "name": "getProductDetails",
      "outputs": [
        {
          "name": "",
          "type": "string"
        },
        {
          "name": "",
          "type": "address"
        },
        {
          "name": "",
          "type": "string"
        },
        {
          "name": "",
          "type": "string"
        },
        {
          "name": "",
          "type": "string"
        }
      ],
      "payable": false,
      "stateMutability": "view",
      "type": "function"
    },
    {
      "constant": true,
      "inputs": [],
      "name": "getManufacturer",
      "outputs": [
        {
          "name": "",
          "type": "address"
        },
        {
          "name": "",
          "type": "string"
        }
      ],
      "payable": false,
      "stateMutability": "view",
      "type": "function"
    },
    {
      "constant": true,
      "inputs": [],
      "name": "getProductionLocation",
      "outputs": [
        {
          "name": "",
          "type": "string"
        }
      ],
      "payable": false,
      "stateMutability": "view",
      "type": "function"
    },
    {
      "constant": true,
      "inputs": [],
      "name": "getProductionDate",
      "outputs": [
        {
          "name": "",
          "type": "string"
        }
      ],
      "payable": false,
      "stateMutability": "view",
      "type": "function"
    },
    {
      "constant": true,
      "inputs": [],
      "name": "getComponents",
      "outputs": [
        {
          "name": "",
          "type": "address[]"
        }
      ],
      "payable": false,
      "stateMutability": "view",
      "type": "function"
    }
  ],
  "bytecode": "0x60806040526007805462ffffff1916905534801561001c57600080fd5b506007805461ff001916610100179055610ef28061003b6000396000f3006080604052600436106100ae5763ffffffff7c010000000000000000000000000000000000000000000000000000000060003504166303a2d7f181146100b357806304b0cdda146100ca578063174825141461017057806317d7de7c146101fa57806323bc839b1461020f5780634e353270146103e7578063602f0fa41461040857806397e175621461045957806399d50d5d1461046e578063d9a494fc146104d3578063fc64f438146104e8575b600080fd5b3480156100bf57600080fd5b506100c86104fd565b005b3480156100d657600080fd5b506100df6105cb565b6040518083600160a060020a0316600160a060020a0316815260200180602001828103825283818151815260200191508051906020019080838360005b8381101561013457818101518382015260200161011c565b50505050905090810190601f1680156101615780820380516001836020036101000a031916815260200191505b50935050505060405180910390f35b34801561017c57600080fd5b50610185610678565b6040805160208082528351818301528351919283929083019185019080838360005b838110156101bf5781810151838201526020016101a7565b50505050905090810190601f1680156101ec5780820380516001836020036101000a031916815260200191505b509250505060405180910390f35b34801561020657600080fd5b5061018561070f565b34801561021b57600080fd5b50610224610770565b604051808060200186600160a060020a0316600160a060020a0316815260200180602001806020018060200185810385528a818151815260200191508051906020019080838360005b8381101561028557818101518382015260200161026d565b50505050905090810190601f1680156102b25780820380516001836020036101000a031916815260200191505b5085810384528851815288516020918201918a019080838360005b838110156102e55781810151838201526020016102cd565b50505050905090810190601f1680156103125780820380516001836020036101000a031916815260200191505b50858103835287518152875160209182019189019080838360005b8381101561034557818101518382015260200161032d565b50505050905090810190601f1680156103725780820380516001836020036101000a031916815260200191505b50858103825286518152865160209182019188019080838360005b838110156103a557818101518382015260200161038d565b50505050905090810190601f1680156103d25780820380516001836020036101000a031916815260200191505b50995050505050505050505060405180910390f35b3480156103f357600080fd5b506100c8600160a060020a03600435166109ee565b34801561041457600080fd5b506100c860048035600160a060020a03169060248035808201929081013591604435808201929081013591606435808201929081013591608435908101910135610b12565b34801561046557600080fd5b50610185610b88565b34801561047a57600080fd5b50610483610be9565b60408051602080825283518183015283519192839290830191858101910280838360005b838110156104bf5781810151838201526020016104a7565b505050509050019250505060405180910390f35b3480156104df57600080fd5b506100c8610c4a565b3480156104f457600080fd5b506100c8610d77565b600054600160a060020a03163314610561576040805160e560020a62461bcd0281526020600482015260266024820152600080516020610e878339815191526044820152600080516020610ea7833981519152606482015290519081900360840190fd5b60075460ff16156105bc576040805160e560020a62461bcd02815260206004820152601e60248201527f50726f647563742073686f756c20626520696e697469616c697a656420330000604482015290519081900360640190fd5b6007805460ff19166001179055565b6001805460038054604080516020601f600260001998861615610100029890980190941696909604928301869004860281018601909152818152600094606094600160a060020a0316939283918301828280156106695780601f1061063e57610100808354040283529160200191610669565b820191906000526020600020905b81548152906001019060200180831161064c57829003601f168201915b50505050509050915091509091565b60058054604080516020601f60026000196101006001881615020190951694909404938401819004810282018101909252828152606093909290918301828280156107045780601f106106d957610100808354040283529160200191610704565b820191906000526020600020905b8154815290600101906020018083116106e757829003601f168201915b505050505090505b90565b60068054604080516020601f60026000196101006001881615020190951694909404938401819004810282018101909252828152606093909290918301828280156107045780601f106106d957610100808354040283529160200191610704565b6060600060608060606006600160009054906101000a9004600160a060020a0316600360046005848054600181600116156101000203166002900480601f01602080910402602001604051908101604052809291908181526020018280546001816001161561010002031660029004801561082c5780601f106108015761010080835404028352916020019161082c565b820191906000526020600020905b81548152906001019060200180831161080f57829003601f168201915b5050865460408051602060026001851615610100026000190190941693909304601f8101849004840282018401909252818152959a50889450925084019050828280156108ba5780601f1061088f576101008083540402835291602001916108ba565b820191906000526020600020905b81548152906001019060200180831161089d57829003601f168201915b5050855460408051602060026001851615610100026000190190941693909304601f8101849004840282018401909252818152959850879450925084019050828280156109485780601f1061091d57610100808354040283529160200191610948565b820191906000526020600020905b81548152906001019060200180831161092b57829003601f168201915b5050845460408051602060026001851615610100026000190190941693909304601f8101849004840282018401909252818152959750869450925084019050828280156109d65780601f106109ab576101008083540402835291602001916109d6565b820191906000526020600020905b8154815290600101906020018083116109b957829003601f168201915b50505050509050945094509450945094509091929394565b600054600160a060020a03163314610a52576040805160e560020a62461bcd0281526020600482015260266024820152600080516020610e878339815191526044820152600080516020610ea7833981519152606482015290519081900360840190fd5b60075462010000900460ff1615610ab3576040805160e560020a62461bcd02815260206004820152601f60248201527f50726f647563742073686f756c6420626520696e697469616c697a6564203200604482015290519081900360640190fd5b600280546001810182556000919091527f405787fa12a823e0f2b7631cc41b3ba8828b3321ca811111fa75cd3aa3bb5ace01805473ffffffffffffffffffffffffffffffffffffffff1916600160a060020a0392909216919091179055565b610b1e60068989610dee565b506000805473ffffffffffffffffffffffffffffffffffffffff1916600160a060020a038b16179055610b5360038787610dee565b50610b6060048585610dee565b50610b6d60058383610dee565b50506007805461ff0019166101001790555050505050505050565b60048054604080516020601f60026000196101006001881615020190951694909404938401819004810282018101909252828152606093909290918301828280156107045780601f106106d957610100808354040283529160200191610704565b6060600280548060200260200160405190810160405280929190818152602001828054801561070457602002820191906000526020600020905b8154600160a060020a03168152600190910190602001808311610c23575050505050905090565b60008054600160a060020a03163314610caf576040805160e560020a62461bcd0281526020600482015260266024820152600080516020610e878339815191526044820152600080516020610ea7833981519152606482015290519081900360840190fd5b60075460ff1615610d0a576040805160e560020a62461bcd02815260206004820152601e60248201527f50726f647563742073686f756c20626520696e697469616c697a656420330000604482015290519081900360640190fd5b506000805473ffffffffffffffffffffffffffffffffffffffff19811633179182905560408051600160a060020a0392831680825293909216602083015280517fa40b8022826a17b1b2fcf40a0dbf967f3ca29814c7ba2f9bac7a9175233faef49281900390910190a150565b600054600160a060020a03163314610ddb576040805160e560020a62461bcd0281526020600482015260266024820152600080516020610e878339815191526044820152600080516020610ea7833981519152606482015290519081900360840190fd5b6007805462ff0000191662010000179055565b828054600181600116156101000203166002900490600052602060002090601f016020900481019282601f10610e2f5782800160ff19823516178555610e5c565b82800160010185558215610e5c579182015b82811115610e5c578235825591602001919060010190610e41565b50610e68929150610e6c565b5090565b61070c91905b80821115610e685760008155600101610e725600796f7520617265206e6f7420746865206f776e6572206f66207468697320636f6e74726163740000000000000000000000000000000000000000000000000000a165627a7a723058207e4751856757f0e460aaccc7ca7534c159f327b74686686798d23e066ee1310a0029",
  "source": "pragma solidity >=0.4.23 <0.9.0;\n\ncontract Textile {\n\n\taddress private current_owner;\n\taddress private manufacturer;\n\taddress [] private textile_components;\n\tstring private factory_name;\n\tstring private factory_location;\n\tstring private factory_date;\n\tstring private product_name;\n\n\tbool private is_component = false;\n\tbool private is_init = false;\n\tbool private is_final_product = false;\n\n\n\tconstructor() public {\n\t\tis_init = true;\n\t}\n\n\tmodifier notInit(){\n\t\trequire(!is_init,'Product shoul be initialized 0');\n\t\t_;\n\t}\n\n\tmodifier onlyOwner(){\n        require(msg.sender == current_owner, \"you are not the owner of this contract\");\n        _;\n    }\n\n\tmodifier isFinalProduct(){\n\t\trequire(is_final_product,'Product shoul be initialized 1');\n\t\t_;\n\t}\n\n\tmodifier isNotFinalProduct(){\n\t\trequire(!is_final_product,'Product should be initialized 2');\n\t\t_;\n\t}\n\n\n\tmodifier isNotConsumed(){\n\t\trequire(!is_component,'Product shoul be initialized 3');\n\t\t_;\n\t}\n\n\tevent productExchanged(address previous_address, address current_address);\n\n    function init(address _current_owner, string _product_name, string _factory_name, string _factory_location, string _factory_date) external  {\n        product_name = _product_name;\n\t\tcurrent_owner = _current_owner;\n\t\tfactory_name = _factory_name;\n\t\tfactory_location = _factory_location;\n\t\tfactory_date = _factory_date;\n\n        is_init = true; \n    }\n\n\tfunction productExchange() external onlyOwner isNotConsumed {\n\n\t\taddress old_address = current_owner;\n\t\tcurrent_owner = msg.sender;\n\n\t\temit productExchanged(old_address, current_owner);\n\n\t}\n\n\t\n    function getName() external view returns(string memory){\n        return product_name;\n    }\n\n\tfunction addComponent(address component) external onlyOwner isNotFinalProduct {\n\n\t\ttextile_components.push(component);\n\t}\n\n\tfunction consumeProduct() external onlyOwner isNotConsumed {\n\t\t\n\t\tis_component = true;\n\t}\n\n\tfunction finalProduct() external onlyOwner{\n\n\t\tis_final_product = true;\n\t}\n\n\tfunction getProductDetails() external view returns(string memory, address, string memory, string memory, string memory){\n        return (product_name,manufacturer,factory_name,factory_location,factory_date);\n    }\n\n\t    function getManufacturer() external view returns(address, string memory){\n        return (manufacturer, factory_name);\n    }\n\n    function getProductionLocation() external view returns(string memory){\n        return factory_location;\n    }\n\n    function getProductionDate() external view returns(string memory){\n        return factory_date;\n    }\n\n    function getComponents() external view returns(address[] memory){\n        return textile_components;\n    }\n} ",
  "sourcePath": "C:\\Users\\aleba\\Desktop\\TextileChain\\smart_contracts\\contracts\\Textile.sol",
  "compiler": {
    "name": "solc",
    "version": "0.4.26+commit.4563c3fc.Emscripten.clang"
  },
  "schemaVersion": "3.4.11",
  "updatedAt": "2023-03-04T09:23:18.933Z",
  "networkType": "ethereum",
  "devdoc": {
    "methods": {}
  },
  "userdoc": {
    "methods": {}
  }
}