{
  "contractName": "TextileFactory",
  "abi": [
    {
      "constant": true,
      "inputs": [],
      "name": "libraryAddress",
      "outputs": [
        {
          "name": "",
          "type": "address"
        }
      ],
      "payable": false,
      "stateMutability": "view",
      "type": "function"
    },
    {
      "inputs": [
        {
          "name": "_libraryAddress",
          "type": "address"
        }
      ],
      "payable": false,
      "stateMutability": "nonpayable",
      "type": "constructor"
    },
    {
      "anonymous": false,
      "inputs": [
        {
          "indexed": false,
          "name": "newTextileFactory",
          "type": "address"
        }
      ],
      "name": "TextileCreated",
      "type": "event"
    },
    {
      "constant": false,
      "inputs": [
        {
          "name": "_libraryAddress",
          "type": "address"
        }
      ],
      "name": "setLibraryAddress",
      "outputs": [],
      "payable": false,
      "stateMutability": "nonpayable",
      "type": "function"
    },
    {
      "constant": false,
      "inputs": [
        {
          "name": "_name",
          "type": "string"
        },
        {
          "name": "_factory_name",
          "type": "string"
        },
        {
          "name": "_factory_location",
          "type": "string"
        },
        {
          "name": "_factory_date",
          "type": "string"
        }
      ],
      "name": "createTextile",
      "outputs": [],
      "payable": false,
      "stateMutability": "nonpayable",
      "type": "function"
    }
  ],
  "bytecode": "0x608060405234801561001057600080fd5b50604051602080610578833981016040525160008054600160a060020a03909216600160a060020a0319909216919091179055610526806100526000396000f3006080604052600436106100565763ffffffff7c01000000000000000000000000000000000000000000000000000000006000350416634863ba17811461005b578063b816f5131461007e578063fc9ab65b146100af575b600080fd5b34801561006757600080fd5b5061007c600160a060020a03600435166101c2565b005b34801561008a57600080fd5b506100936101f1565b60408051600160a060020a039092168252519081900360200190f35b3480156100bb57600080fd5b506040805160206004803580820135601f810184900484028501840190955284845261007c94369492936024939284019190819084018382808284375050604080516020601f89358b018035918201839004830284018301909452808352979a99988101979196509182019450925082915084018382808284375050604080516020601f89358b018035918201839004830284018301909452808352979a99988101979196509182019450925082915084018382808284375050604080516020601f89358b018035918201839004830284018301909452808352979a9998810197919650918201945092508291508401838280828437509497506102009650505050505050565b6000805473ffffffffffffffffffffffffffffffffffffffff1916600160a060020a0392909216919091179055565b600054600160a060020a031681565b6000805461021690600160a060020a0316610487565b905080600160a060020a031663602f0fa433878787876040518663ffffffff167c01000000000000000000000000000000000000000000000000000000000281526004018086600160a060020a0316600160a060020a0316815260200180602001806020018060200180602001858103855289818151815260200191508051906020019080838360005b838110156102b85781810151838201526020016102a0565b50505050905090810190601f1680156102e55780820380516001836020036101000a031916815260200191505b5085810384528851815288516020918201918a019080838360005b83811015610318578181015183820152602001610300565b50505050905090810190601f1680156103455780820380516001836020036101000a031916815260200191505b50858103835287518152875160209182019189019080838360005b83811015610378578181015183820152602001610360565b50505050905090810190601f1680156103a55780820380516001836020036101000a031916815260200191505b50858103825286518152865160209182019188019080838360005b838110156103d85781810151838201526020016103c0565b50505050905090810190601f1680156104055780820380516001836020036101000a031916815260200191505b509950505050505050505050600060405180830381600087803b15801561042b57600080fd5b505af115801561043f573d6000803e3d6000fd5b505060408051600160a060020a038516815290517faffd25f704a5900f8584a0fa60ac062abecc61fc74586ceefb633e549c20208d9350908190036020019150a15050505050565b6040517f3d602d80600a3d3981f3363d3d373d3d3d363d7300000000000000000000000081526c010000000000000000000000008202601482018190527f5af43d82803e903d91602b57fd5bf30000000000000000000000000000000000602883015260009160378184f09493505050505600a165627a7a72305820ba57898b1521cd1f84c7c25d4fd85ec437f1df77638e1e7d02246fc1e798f7310029",
  "source": "pragma solidity >=0.4.23 <0.9.0;\r\nimport \"./Textile.sol\";\r\nimport \"@optionality.io/clone-factory/contracts/CloneFactory.sol\";\r\n\r\ncontract TextileFactory is CloneFactory {\r\n\r\n  address public libraryAddress;\r\n\r\n  event TextileCreated(address newTextileFactory);\r\n\r\n  constructor(address _libraryAddress) public {\r\n    libraryAddress = _libraryAddress;\r\n  }\r\n  \r\n  function setLibraryAddress(address _libraryAddress) public {\r\n    libraryAddress = _libraryAddress;\r\n  }\r\n\r\n  function createTextile(string _name, string  _factory_name, string  _factory_location, string  _factory_date) public {\r\n    address clone = createClone(libraryAddress);\r\n    Textile(clone).init(msg.sender, _name, _factory_name, _factory_location, _factory_date);\r\n    emit TextileCreated(clone);\r\n  }\r\n}",
  "sourcePath": "C:\\Users\\aleba\\Desktop\\TextileChain\\smart_contracts\\contracts\\TextileFactory.sol",
  "compiler": {
    "name": "solc",
    "version": "0.4.26+commit.4563c3fc.Emscripten.clang"
  },
  "schemaVersion": "3.4.11",
  "updatedAt": "2023-03-15T10:49:19.167Z",
  "networkType": "ethereum",
  "devdoc": {
    "methods": {}
  },
  "userdoc": {
    "methods": {}
  }
}