{
  "contractName": "TextileFactory",
  "abi": [
    {
      "constant": true,
      "inputs": [],
      "name": "libraryAddress",
      "outputs": [
        {
          "name": "",
          "type": "address"
        }
      ],
      "payable": false,
      "stateMutability": "view",
      "type": "function"
    },
    {
      "inputs": [
        {
          "name": "_libraryAddress",
          "type": "address"
        }
      ],
      "payable": false,
      "stateMutability": "nonpayable",
      "type": "constructor"
    },
    {
      "anonymous": false,
      "inputs": [
        {
          "indexed": false,
          "name": "newTextileFactory",
          "type": "address"
        }
      ],
      "name": "TextileCreated",
      "type": "event"
    },
    {
      "constant": false,
      "inputs": [
        {
          "name": "_libraryAddress",
          "type": "address"
        }
      ],
      "name": "setLibraryAddress",
      "outputs": [],
      "payable": false,
      "stateMutability": "nonpayable",
      "type": "function"
    },
    {
      "constant": false,
      "inputs": [
        {
          "name": "_name",
          "type": "string"
        },
        {
          "name": "_factory_name",
          "type": "string"
        },
        {
          "name": "_factory_location",
          "type": "string"
        },
        {
          "name": "_factory_date",
          "type": "string"
        },
        {
          "name": "_verification_id",
          "type": "string"
        }
      ],
      "name": "createTextile",
      "outputs": [],
      "payable": false,
      "stateMutability": "nonpayable",
      "type": "function"
    }
  ],
  "bytecode": "0x608060405234801561001057600080fd5b5060405160208061061e833981016040525160008054600160a060020a03909216600160a060020a03199092169190911790556105cc806100526000396000f3006080604052600436106100565763ffffffff7c010000000000000000000000000000000000000000000000000000000060003504166340c45d88811461005b5780634863ba17146101ae578063b816f513146101cf575b600080fd5b34801561006757600080fd5b506040805160206004803580820135601f81018490048402850184019095528484526101ac94369492936024939284019190819084018382808284375050604080516020601f89358b018035918201839004830284018301909452808352979a99988101979196509182019450925082915084018382808284375050604080516020601f89358b018035918201839004830284018301909452808352979a99988101979196509182019450925082915084018382808284375050604080516020601f89358b018035918201839004830284018301909452808352979a99988101979196509182019450925082915084018382808284375050604080516020601f89358b018035918201839004830284018301909452808352979a9998810197919650918201945092508291508401838280828437509497506102009650505050505050565b005b3480156101ba57600080fd5b506101ac600160a060020a03600435166104ef565b3480156101db57600080fd5b506101e461051e565b60408051600160a060020a039092168252519081900360200190f35b6000805461021690600160a060020a031661052d565b905080600160a060020a0316637375871d3388888888886040518763ffffffff167c01000000000000000000000000000000000000000000000000000000000281526004018087600160a060020a0316600160a060020a03168152602001806020018060200180602001806020018060200186810386528b818151815260200191508051906020019080838360005b838110156102bd5781810151838201526020016102a5565b50505050905090810190601f1680156102ea5780820380516001836020036101000a031916815260200191505b5086810385528a5181528a516020918201918c019080838360005b8381101561031d578181015183820152602001610305565b50505050905090810190601f16801561034a5780820380516001836020036101000a031916815260200191505b5086810384528951815289516020918201918b019080838360005b8381101561037d578181015183820152602001610365565b50505050905090810190601f1680156103aa5780820380516001836020036101000a031916815260200191505b5086810383528851815288516020918201918a019080838360005b838110156103dd5781810151838201526020016103c5565b50505050905090810190601f16801561040a5780820380516001836020036101000a031916815260200191505b50868103825287518152875160209182019189019080838360005b8381101561043d578181015183820152602001610425565b50505050905090810190601f16801561046a5780820380516001836020036101000a031916815260200191505b509b505050505050505050505050600060405180830381600087803b15801561049257600080fd5b505af11580156104a6573d6000803e3d6000fd5b505060408051600160a060020a038516815290517faffd25f704a5900f8584a0fa60ac062abecc61fc74586ceefb633e549c20208d9350908190036020019150a1505050505050565b6000805473ffffffffffffffffffffffffffffffffffffffff1916600160a060020a0392909216919091179055565b600054600160a060020a031681565b6040517f3d602d80600a3d3981f3363d3d373d3d3d363d7300000000000000000000000081526c010000000000000000000000008202601482018190527f5af43d82803e903d91602b57fd5bf30000000000000000000000000000000000602883015260009160378184f09493505050505600a165627a7a723058204f719480024df595c35ccaeba21663f26fb32b880261c5ddf98102ab1ef47a440029",
  "source": "pragma solidity >=0.4.23 <0.9.0;\r\nimport \"./Textile.sol\";\r\nimport \"@optionality.io/clone-factory/contracts/CloneFactory.sol\";\r\n\r\ncontract TextileFactory is CloneFactory {\r\n\r\n  address public libraryAddress;\r\n\r\n  event TextileCreated(address newTextileFactory);\r\n\r\n  constructor(address _libraryAddress) public {\r\n    libraryAddress = _libraryAddress;\r\n  }\r\n  \r\n  function setLibraryAddress(address _libraryAddress) public {\r\n    libraryAddress = _libraryAddress;\r\n  }\r\n\r\n  function createTextile(string _name, string  _factory_name, string  _factory_location, string  _factory_date, string _verification_id) public {\r\n    address clone = createClone(libraryAddress);\r\n    Textile(clone).init(msg.sender, _name, _factory_name, _factory_location, _factory_date, _verification_id);\r\n    emit TextileCreated(clone);\r\n  }\r\n}",
  "sourcePath": "C:\\Users\\aleba\\Desktop\\TextileChain\\smart_contracts\\contracts\\TextileFactory.sol",
  "compiler": {
    "name": "solc",
    "version": "0.4.26+commit.4563c3fc.Emscripten.clang"
  },
  "schemaVersion": "3.4.11",
  "updatedAt": "2023-03-16T15:12:03.430Z",
  "networkType": "ethereum",
  "devdoc": {
    "methods": {}
  },
  "userdoc": {
    "methods": {}
  }
}